:0F0FBA0054656D703A202020202E202020430007
:100F8D00120FC97BFF7A0F79BAE4FDFF120E937B26
:080F9D00DFE4FD7F0C020FFBF5
:100B95007B20E4FD7F05120FFBAE26AF277C277D6A
:100BA50010120B517C007D0A120B51ED2430FBE431
:100BB500FD7F06120FFBAE26AF277C037DE8120BE7
:100BC500517C007D0A120B51ED2430FBE4FD7F07BB
:100BD500120FFBAE26AF277C007D64120B517C0003
:100BE5007D0A120B51ED2430FBE4FD7F08120FFB4B
:100BF500AE26AF277C007D0A120B517C007D0A12C0
:100C05000B51ED2430FBE4FD7F0A120FFBAE26AF3E
:100C1500277C007D0A120B51ED2430FBE4FD7F0B90
:030C2500020FFBC0
:100DE6007F647E00120E6C120D6B120F8D20921412
:100DF6007F147E00120E6C20920A120E168E268F1B
:100E060027120B953092FD7F147E00120E6C80DD4A
:100E6C00E4FDFCC3ED9FEC9E501C5389F0438901BB
:100E7C00758CFC758A66D28C308DFDC28CC28D0D42
:060E8C00BD00010C80DD39
:010E9200223D
:090FF100007F027EC7DEFEDFFC7A
:010FFA0022D4
:03100500DFFE22E9
:040EB900E4FD7F389D
:100EBD008F25ED6003120E44C2A7C2A6C2A5120F64
:100ECD00F1852580120FF1D2A5120FF1C2A5020FE7
:010EDD00F123
:100F00008F25120E44D2A7C2A6C2A5120FF18525C5
:0E0F100080120FF1D2A5120FF1C2A5020FF14F
:100D6B00120EB97F057E00120E6C120EB97F057E36
:100D7B0000120E6C120EB97F057E00120E6C7D01F7
:100D8B007F38120EBD7D017F08120EBD7D017F01E4
:100D9B00120EBD7D017F06120EBD7D017F0C020E72
:010DAB00BD8A
:0E0FC9007D017F01120EBD7F057E00020E6CC1
:100E4400E4FFFE7580FFC2A7D2A600D2A50000E58C
:100E54008030E711C3EF94E8EE94035008000FBF0D
:070E640000010E80EAC2A5A7
:010E6B002264
:100FA500EF540FFF530501ED6003430740430780EE
:050FB5007D01020EBDEC
:0A0FFB008B21120FA5AF21020F0099
:060E93008B218A22892355
:100E9900120FA5E4F524AB21AA22A9238524827582
:0F0EA9008300120ABDFF6007120F00052480E7C7
:010EB8002217
:040CAD008A158B1603
:100CB100751900751A01120FA5751801E518C3956C
:100CC100175013AE19AF1A7C007D0A120AEA8E1969
:100CD1008F1A051880E6E4F518E518C39517502F0B
:100CE100AC19AD1AAE15AF16120AFC7C007D0A12C2
:100CF1000AFC8D1BE51B2430FF120F00AE19AF1A41
:0B0D01007C007D0A120AFC8E198F1A7C
:040D0C00051880CA7C
:010D100022C0
:040C28008A0A8B0B9E
:100C2C00750E00750F01120FA5C3E50A6480948040
:100C3C0050127F2D120F00C3E4950BF511E4950AA9
:100C4C00F5108006850A10850B11750D01E50DC395
:100C5C00950C5013AE0EAF0F7C007D0A120AEA8E73
:100C6C000E8F0F050D80E6E4F50DE50DC3950C50C8
:010C7C002F48
:100C7D00AC0EAD0FAE10AF11120AFC7C007D0A1246
:100C8D000AFC8D12E5122430FF120F00AE0EAF0FCD
:0B0C9D007C007D0A120AFC8E0E8F0FF7
:040CA800050D80CAEC
:010CAC002225
:0E0FD700EF1FAC0670011E4C60030080F32279
:100F1E00D2917F04121005D2907F04121005C29157
:0C0F2E007F04121005C2907F0402100521
:100F3A00C2907F04121005C2917F04121005D2904C
:0C0F4A007F04121005D2917F04021005F4
:100F5600200704C2918002D2917F01121005D2901F
:0C0F66007F04121005C2907F04021005E9
:020D11008F2130
:100D130085212375240075250AD3E5259400E52450
:100D2300648094804041E4F522E5235480FF3395A9
:100D3300E04F6003D38001C39207120F56E52325CA
:100D4300E0F5230522C3E5226480948840DB120F7B
:100D530072300013120F3A120F1EE525152570028B
:070D6300152485212380B255
:010D6A002266
:100F7200D291D200D2907F04121005A29192007FEA
:0B0F820002121005C2907F040210054F
:100EDE00E4F522F521E52225E0F522120F7230000D
:100EEE000205220521E521C3940840E9120F56AFF1
:010EFE0022D1
:010EFF0022D0
:100DAC00120F1EE4FF120D117F07120D11120F1EF0
:100DBC007F01120D11C207120EDE8F1CC207120E1C
:100DCC00DE8F1ED207120EDE8F1D120F3AE51EFEAD
:0A0DDC007C00E4251CFFEC3EFE2223
:100E1600120DACAD07AC06EC120A037B0A7AD77941
:100E2600A3783C1208F87B337A93798878C3120842
:0E0E360007E4FBFA79C878421208F8020A3C79
:10080000020AA8E86480F8E933E83360110460F074
:10081000ED33EC337009E8FCE9FDEAFEEBFF22045E
:1008200060DED3EB9FEA9EE99DE8C2E78CF0C2F759
:1008300095F0400CE8CCF8E9CDF9EACEFAEBCFFB25
:10084000120A7385D0F05804700320D5B3E8047001
:10085000075002B2D5020AB292D5EC0460F7E4CC9C
:10086000C0E0C398F8603B94186008400DD0E0FBEE
:10087000020A8AE4FBFAC9FC8028E830E406E4C9ED
:10088000FBE4CAFCE830E305E4C9CACBFCE8540742
:100890006010F8C3E913F9EA13FAEB13FBEC13FC4D
:1008A000D8F130F52FC3E49CFCEF9BFFEE9AFEEDF0
:1008B00099FDD0E0FBEF4E4D4C701222DB03020A93
:1008C000AFEC2CFCEF33FFEE33FEED33FDED30E704
:1008D000EB020A8AEF2BFFEE3AFEED39FDD0E0FB8A
:1008E00050130BBB0003020AB2ED13FDEE13FEEF33
:0808F00013FFEC13FC020A8A5D
:1008F800EC4D6011E8497017ED33EC3304600DE4FA
:10090800FCFFFEFD22E933E8330470F8020AA8125E
:100918000A7358046009E4CC24815006285009025F
:100928000AB2284003020AAFC0E0EB4A7044B9801B
:1009380006D0E0FB020A9EEF4E701CBD8008EBFF5C
:10094800EAFEE9FD80EBE98DF0A4FEE5F00209E19D
:10095800E9CDF9EAFEEBFFEF89F0A4FCE5F0CE89DA
:10096800F0A42EFFE435F0CD89F0A42DFEE435F097
:100978008067EF4E7005BD80D780C3EF8BF0A4ACC5
:10098800F0EE8BF0A42CFCE435F0F8EF8AF0A42C00
:10099800E5F038FCE433CB8DF0A42CFCE5F03BF813
:1009A800EE8AF0A42CFCE5F038F8E433CF89F0A403
:1009B8002CFCE5F038CF3400CE89F0A42FFFE5F009
:1009C8003EFEE433C98DF0A42EFEE5F039CD8AF061
:1009D800A42FFFE5F03EFEE43DFD33D0E0FB5007D9
:1009E8000BBB000F020AB2EC2CFCEF33FFEE33FE18
:0609F800ED33FD020A8A46
:1009FE0075F020800E75F010800575F0087D007E74
:100A0E00007F003392D530D503120B87EC334010A4
:100A1E00EF33FFEE33FEED33FDEC33FCD5F0ED227C
:0E0A2E00E5F0247EA2D513CC92E7CDCEFF22B8
:100A3C00EDD2E7CD33EC3392D524814006E4FFFEB2
:100A4C00FDFC22FCE4CFCECDCC24E0501174FF8011
:100A5C00EDC3CC13CCCD13CDCE13CECF13CF0470AE
:070A6C00F030D5DE020B871C
:100A7300E9D2E7C933E833F892D5EDD2E7CD33ECC9
:070A830033FC5002B2D52242
:100A8A00EC30E7100FBF000C0EBE00080DBD0004CD
:100A9A000BEB6014A2D5EB13FCED92E7FD2274FF79
:100AAA00FCFDFEFF22E480F8A2D574FF13FC7D80D2
:030ABA00E480EFE6
:03000000020FE507
:0C0FE500787FE4F6D8FD758127020DE648
:100ABD00BB010CE58229F582E5833AF583E02250EE
:100ACD0006E92582F8E622BBFE06E92582F8E22238
:0D0ADD00E58229F582E5833AF583E4932252
:100AEA00EF8DF0A4A8F0CF8CF0A428CE8DF0A42E20
:020AFA00FE22DA
:100AFC00BC000BBE0029EF8DF084FFADF022E4CCDE
:100B0C00F875F008EF2FFFEE33FEEC33FCEE9DECA6
:100B1C00984005FCEE9DFE0FD5F0E9E4CEFD22EDEC
:100B2C00F8F5F0EE8420D21CFEADF075F008EF2F36
:100B3C00FFED33FD4007985006D5F0F222C398FD27
:050B4C000FD5F0EA22C4
:100B5100C2D5EC30E709B2D5E4C39DFDE49CFCEEBF
:100B610030E715B2D5E4C39FFFE49EFE120AFCC331
:100B7100E49DFDE49CFC8003120AFC30D507C3E42C
:060B81009FFFE49EFE222E
:0E0B8700C3E49FFFE49EFEE49DFDE49CFC227F
:00000001FF
