:090D93007FF47E01120C2A80FE9F
:100C2A00E4FDFCC3ED9FEC9E501C5389F0438901FF
:100C3A00758CFC758A66D28C308DFDC28CC28D0D86
:060C4A00BD00010C80DD7D
:010C50002281
:090D7F00007F027EC7DEFEDFFCEE
:010D88002248
:040C7700E4FD7F38E1
:100C7B008F2CED6003120C02C2A7C2A6C2A5120DE7
:100C8B007F852C80120D7FD2A5120D7FC2A5020D80
:010C9B007FD9
:100CBD008F2D120C02D2A7C2A6C2A5120D7F852DB3
:0E0CCD0080120D7FD2A5120D7FC2A5020D7FF1
:100B8700120C777F057E00120C2A120C777F057EE8
:100B970000120C2A120C777F057E00120C2A7D01A9
:100BA7007F38120C7B7D017F08120C7B7D017F0152
:100BB700120C7B7D017F06120C7B7D017F0C020CE2
:010BC7007BB2
:0E0D65007D017F01120C7B7F057E00020C2AAF
:100C0200E4FFFE7580FFC2A7D2A600D2A50000E5D0
:100C12008030E711C3EF94E8EE94035008000FBF51
:070C220000010E80EAC2A5EB
:010C290022A8
:100D2A00EF540FFF530501ED60034307404307806B
:050D3A007D01020C7BAD
:0A0D89008B2E120D2AAF2E020CBDB6
:060C51008B1C8A1D891EA8
:100C5700120D2AE4F51FAB1CAA1DA91E851F82755C
:0F0C67008300120800FF6007120CBD051F80E715
:010C7600225B
:040AD1008A158B16E1
:100AD500751900751A01120D2A751801E518C395C7
:100AE500175013AE19AF1A7C007D0A12082D8E1906
:100AF5008F1A051880E6E4F518E518C39517502FE9
:100B0500AC19AD1AAE15AF1612083F7C007D0A125E
:100B1500083F8D1BE51B2430FF120CBDAE19AF1A23
:0B0B25007C007D0A12083F8E198F1A19
:040B3000051880CA5A
:010B3400229E
:040A4C008A0A8B0B7C
:100A5000750E00750F01120D2AC3E50A648094809B
:100A600050127F2D120CBDC3E4950BF511E4950ACD
:100A7000F5108006850A10850B11750D01E50DC373
:100A8000950C5013AE0EAF0F7C007D0A12082D8E10
:100A90000E8F0F050D80E6E4F50DE50DC3950C50A6
:010AA0002F26
:100AA100AC0EAD0FAE10AF1112083F7C007D0A12E3
:100AB100083F8D12E5122430FF120CBDAE0EAF0FB0
:0B0AC1007C007D0A12083F8E0E8F0F94
:040ACC00050D80CACA
:010AD0002203
:0D0CF7007F057E00120D04D2907F057E0067
:0E0D0400EF1FAC0670011E4C60030080F3224E
:100D3F00D291120CF7C291120D00C2907F057E0066
:030D4F00020D048E
:100D5200C290120D00C291120CF7D2917F057E0053
:030D6200020D047B
:100CDB00200704C2918002D29100D2907F0A7E003D
:0C0CEB00120D04C2907F0A7E00020D046E
:020B35008F210E
:100B370085212275230075240AD3E5249400E52333
:100B4700648094804039E4FDE5225480FF3395E0CA
:100B57004F6003D38001C39207120CDBE52225E027
:100B6700F5220DBD08E2120C9C300013120D521233
:0F0B77000D3FE52415247002152385212280BA35
:010B8600224C
:100C9C00D291D200D2907F0A7E00120D04A29192C2
:100CAC00007F027E00120D04C2907F0A7E00020DAE
:010CBC000433
:100D1200E4FDFBED25E0FD120C9C3000010D0BBB48
:070D220008F1120CDBAF0524
:010D290022A7
:100BC800120D3FE4FF120B357F07120B35120D3F54
:100BD8007F01120B35C207120D128F29C207120DA1
:100BE800128F2BD207120D128F2A120D52E52BFEEF
:0A0BF8007C00E42529FFEC3EFE22FC
:10099800120BC8EF25E0FFEE33AB07FAC3EB94B3B5
:1009A800EA648094EA4027744D2BFB74953AFA7CEC
:1009B800007D64AF03FE1208948E258F267C007D8F
:1009C80064AF03AE021208948C278D288030C3745C
:1009D800B39BFB746A9AFA7C007D64AF03FE12082D
:1009E800948E258F267C007D6412082DC3EB9FF51D
:1009F80028EA9EF5277B2D7D017F01120D89751749
:100A080003AB26AA257D027F01120AD17B2E7D0524
:100A18007F01120D89AE27AF28EE3395E0FDFCE487
:100A28007B64FAF9F81209067517027D067F011230
:100A38000AD17BDF7D087F01120D897B437D097F09
:040A480001020D8911
:03000000020D737B
:0C0D7300787FE4F6D8FD75812E020D9308
:10080000BB010CE58229F582E5833AF583E02250AD
:1008100006E92582F8E622BBFE06E92582F8E222F7
:0D082000E58229F582E5833AF583E4932211
:10082D00EF8DF0A4A8F0CF8CF0A428CE8DF0A42EDF
:02083D00FE2299
:10083F00BC000BBE0029EF8DF084FFADF022E4CC9D
:10084F00F875F008EF2FFFEE33FEEC33FCEE9DEC66
:10085F00984005FCEE9DFE0FD5F0E9E4CEFD22EDAC
:10086F00F8F5F0EE8420D21CFEADF075F008EF2FF6
:10087F00FFED33FD4007985006D5F0F222C398FDE7
:05088F000FD5F0EA2284
:10089400C2D5EC30E709B2D5E4C39DFDE49CFCEE7F
:1008A40030E715B2D5E4C39FFFE49EFE12083FC3B0
:1008B400E49DFDE49CFC800312083F30D507C3E4AB
:0608C4009FFFE49EFE22EE
:1008CA0075F008758200EF2FFFEE33FECD33CDCCE5
:1008DA0033CCC58233C5829BED9AEC99E582984068
:1008EA000CF582EE9BFEED9AFDEC99FC0FD5F0D645
:1008FA00E4CEFBE4CDFAE4CCF9A88222B800C1B96F
:10090A000059BA002DEC8BF084CFCECDFCE5F0CBAC
:10091A00F97818EF2FFFEE33FEED33FDEC33FCEBE5
:10092A0033FB10D703994004EB99FB0FD8E5E4F9A0
:10093A00FA227818EF2FFFEE33FEED33FDEC33FC8D
:10094A00C933C910D7059BE99A4007EC9BFCE99A81
:10095A00F90FD8E0E4C9FAE4CCFB2275F010EF2FC6
:10096A00FFEE33FEED33FDCC33CCC833C810D707C6
:10097A009BEC9AE899400AED9BFDEC9AFCE899F801
:0E098A000FD5F0DAE4CDFBE4CCFAE4C8F92294
:00000001FF
