:0F11120054656D703A202020202E2020204300AD
:1010E5001211217BFF7A117912E4FDFF120FC77BE4
:0810F500DFE4FD7F0C02115342
:100C63007B20E4FD7F05121153AE1EAF1F7C277D51
:100C730010120B517C007D0A120B51ED2430FBE462
:100C8300FD7F06121153AE1EAF1F7C037DE8120BCE
:100C9300517C007D0A120B51ED2430FBE4FD7F07EC
:100CA300121153AE1EAF1F7C007D64120B517C00EA
:100CB3007D0A120B51ED2430FBE4FD7F0812115322
:100CC300AE1EAF1F7C007D0A120B517C007D0A1201
:100CD3000B51ED2430FBE4FD7F0A121153AE1EAF1E
:100CE3001F7C007D0A120B51ED2430FBE4FD7F0BCA
:030CF30002115398
:100D7B007F647E00120FA0120EFD1210E52092640C
:100D8B007F147E00120FA020925AE4F518F517F588
:100D9B0016F515F513F514121012EE3395E0FDFC54
:100DAB00E5182FF518E5173EF517E5163DF516E591
:100DBB00153CF5157F017E00120FA00514E514708C
:100DCB00020513C3E5136480948140CBE4FB7A01E5
:100DDB00F9F8AF18AE17AD16AC15120EB98E1E8FF3
:100DEB001F120C633092FD7F147E00120FA0808DBA
:100FA000E4FDFCC3ED9FEC9E501C5389F043890186
:100FB000758CFC758A66D28C308DFDC28CC28D0D0D
:060FC000BD00010C80DD04
:010FC6002208
:09114900007F027EC7DEFEDFFC20
:01115200227A
:03115D00DFFE2290
:040FED00E4FD7F3868
:100FF1008F1DED6003120F78C2A7C2A6C2A5121100
:1010010049851D80121149D2A5121149C2A50211AB
:011011004995
:101058008F1D120F78D2A7C2A6C2A5121149851DED
:0E10680080121149D2A5121149C2A5021149E8
:100EFD00120FED7F057E00120FA0120FED7F057E04
:100F0D0000120FA0120FED7F057E00120FA07D01C4
:100F1D007F38120FF17D017F08120FF17D017F01E6
:100F2D00120FF17D017F06120FF17D017F0C020F73
:010F3D00F1C2
:0E1121007D017F01120FF17F057E00020FA0FD
:100F7800E4FFFE7580FFC2A7D2A600D2A50000E557
:100F88008030E711C3EF94E8EE94035008000FBFD8
:070F980000010E80EAC2A572
:010F9F00222F
:1010FD00EF540FFF530501ED600343074043078095
:05110D007D01020FF15D
:0A1153008B191210FDAF190210589D
:060FC7008B198A1A891B38
:100FCD001210FDE4F51CAB19AA1AA91B851C82751C
:0F0FDD008300120ABDFF6007121058051C80E741
:010FEC0022E2
:040DFB008A238B2498
:100DFF007527007528011210FD752601E526C3958C
:100E0F00255013AE27AF287C007D0A120AEA8E27E1
:100E1F008F28052680E6E4F526E526C39525502F75
:100E2F00AC27AD28AE23AF24120AFC7C007D0A123A
:100E3F000AFC8D29E5292430FF121058AE27AF2860
:0B0E4F007C007D0A120AFC8E278F2811
:040E5A00052680CA1F
:010E5E002271
:040CF6008A0A8B0BD0
:100CFA00750E00750F011210FDC3E50A6480948019
:100D0A0050127F2D121058C3E4950BF511E4950A81
:100D1A00F5108006850A10850B11750D01E50DC3C6
:100D2A00950C5013AE0EAF0F7C007D0A120AEA8EA4
:100D3A000E8F0F050D80E6E4F50DE50DC3950C50F9
:010D4A002F79
:100D4B00AC0EAD0FAE10AF11120AFC7C007D0A1277
:100D5B000AFC8D12E5122430FF121058AE0EAF0FA5
:0B0D6B007C007D0A120AFC8E0E8F0F28
:040D7600050D80CA1D
:010D7A002256
:0E112F00EF1FAC0670011E4C60030080F3221F
:10107600D2917F0412115DD2907F0412115DC2914C
:0C1086007F0412115DC2907F0402115D16
:10109200C2907F0412115DC2917F0412115DD29041
:0C10A2007F0412115DD2917F0402115DE9
:1010AE00200704C2918002D2917F0112115DD2906D
:0C10BE007F0412115DC2907F0402115DDE
:020E5F008F19E9
:100E610085191B751C00751D0AD3E51D9400E51C31
:100E7100648094804041E4F51AE51B5480FF33956A
:100E8100E04F6003D38001C392071210AEE51B252A
:100E9100E0F51B051AC3E51A6480948840DB121043
:100EA100CA300013121092121076E51D151D700242
:070EB100151C85191B80B21E
:010EB8002217
:1010CA00D291D200D2907F0412115DA29192007F38
:0B10DA000212115DC2907F0402115D44
:10103600E4F51AF519E51A25E0F51A1210CA30007A
:1010460002051A0519E519C3940840E91210AEAF56
:011056001A7F
:011057002276
:100F3E00121076E4FF120E5F7F07120E5F1210760C
:100F4E007F01120E5FC2071210368F2AC2071210CF
:100F5E00368F2CD2071210368F2B121092E52CFEE4
:0A0F6E007C00E4252AFFEC3EFE2281
:10101200120F3EAD07AC06EC120A037B2B7A8779DE
:101022000678401208F87B217A2679E078C6120801
:0410320007020A3C6B
:10080000020AA8E86480F8E933E83360110460F074
:10081000ED33EC337009E8FCE9FDEAFEEBFF22045E
:1008200060DED3EB9FEA9EE99DE8C2E78CF0C2F759
:1008300095F0400CE8CCF8E9CDF9EACEFAEBCFFB25
:10084000120A7385D0F05804700320D5B3E8047001
:10085000075002B2D5020AB292D5EC0460F7E4CC9C
:10086000C0E0C398F8603B94186008400DD0E0FBEE
:10087000020A8AE4FBFAC9FC8028E830E406E4C9ED
:10088000FBE4CAFCE830E305E4C9CACBFCE8540742
:100890006010F8C3E913F9EA13FAEB13FBEC13FC4D
:1008A000D8F130F52FC3E49CFCEF9BFFEE9AFEEDF0
:1008B00099FDD0E0FBEF4E4D4C701222DB03020A93
:1008C000AFEC2CFCEF33FFEE33FEED33FDED30E704
:1008D000EB020A8AEF2BFFEE3AFEED39FDD0E0FB8A
:1008E00050130BBB0003020AB2ED13FDEE13FEEF33
:0808F00013FFEC13FC020A8A5D
:1008F800EC4D6011E8497017ED33EC3304600DE4FA
:10090800FCFFFEFD22E933E8330470F8020AA8125E
:100918000A7358046009E4CC24815006285009025F
:100928000AB2284003020AAFC0E0EB4A7044B9801B
:1009380006D0E0FB020A9EEF4E701CBD8008EBFF5C
:10094800EAFEE9FD80EBE98DF0A4FEE5F00209E19D
:10095800E9CDF9EAFEEBFFEF89F0A4FCE5F0CE89DA
:10096800F0A42EFFE435F0CD89F0A42DFEE435F097
:100978008067EF4E7005BD80D780C3EF8BF0A4ACC5
:10098800F0EE8BF0A42CFCE435F0F8EF8AF0A42C00
:10099800E5F038FCE433CB8DF0A42CFCE5F03BF813
:1009A800EE8AF0A42CFCE5F038F8E433CF89F0A403
:1009B8002CFCE5F038CF3400CE89F0A42FFFE5F009
:1009C8003EFEE433C98DF0A42EFEE5F039CD8AF061
:1009D800A42FFFE5F03EFEE43DFD33D0E0FB5007D9
:1009E8000BBB000F020AB2EC2CFCEF33FFEE33FE18
:0609F800ED33FD020A8A46
:1009FE0075F020800E75F010800575F0087D007E74
:100A0E00007F003392D530D503120B87EC334010A4
:100A1E00EF33FFEE33FEED33FDEC33FCD5F0ED227C
:0E0A2E00E5F0247EA2D513CC92E7CDCEFF22B8
:100A3C00EDD2E7CD33EC3392D524814006E4FFFEB2
:100A4C00FDFC22FCE4CFCECDCC24E0501174FF8011
:100A5C00EDC3CC13CCCD13CDCE13CECF13CF0470AE
:070A6C00F030D5DE020B871C
:100A7300E9D2E7C933E833F892D5EDD2E7CD33ECC9
:070A830033FC5002B2D52242
:100A8A00EC30E7100FBF000C0EBE00080DBD0004CD
:100A9A000BEB6014A2D5EB13FCED92E7FD2274FF79
:100AAA00FCFDFEFF22E480F8A2D574FF13FC7D80D2
:030ABA00E480EFE6
:0300000002113DAD
:0C113D00787FE4F6D8FD75812C020D7B54
:100ABD00BB010CE58229F582E5833AF583E02250EE
:100ACD0006E92582F8E622BBFE06E92582F8E22238
:0D0ADD00E58229F582E5833AF583E4932252
:100AEA00EF8DF0A4A8F0CF8CF0A428CE8DF0A42E20
:020AFA00FE22DA
:100AFC00BC000BBE0029EF8DF084FFADF022E4CCDE
:100B0C00F875F008EF2FFFEE33FEEC33FCEE9DECA6
:100B1C00984005FCEE9DFE0FD5F0E9E4CEFD22EDEC
:100B2C00F8F5F0EE8420D21CFEADF075F008EF2F36
:100B3C00FFED33FD4007985006D5F0F222C398FD27
:050B4C000FD5F0EA22C4
:100B5100C2D5EC30E709B2D5E4C39DFDE49CFCEEBF
:100B610030E715B2D5E4C39FFFE49EFE120AFCC331
:100B7100E49DFDE49CFC8003120AFC30D507C3E42C
:060B81009FFFE49EFE222E
:100EB900C2D5E830E70FB2D5E4C39BFBE49AFAE464
:100EC90099F9E498F8EC30E717B2D5120EEF120B46
:100ED900D1E4C39BFBE49AFAE499F9E498F8800316
:100EE900120BD130D50DE4C39FFFE49EFEE49DFDB6
:040EF900E49CFC2257
:0E0B8700C3E49FFFE49EFEE49DFDE49CFC227F
:100B950075F008758200EF2FFFEE33FECD33CDCC17
:100BA50033CCC58233C5829BED9AEC99E58298409A
:100BB5000CF582EE9BFEED9AFDEC99FC0FD5F0D677
:100BC500E4CEFBE4CDFAE4CCF9A88222B800C1B9A1
:100BD5000059BA002DEC8BF084CFCECDFCE5F0CBDF
:100BE500F97818EF2FFFEE33FEED33FDEC33FCEB18
:100BF50033FB10D703994004EB99FB0FD8E5E4F9D3
:100C0500FA227818EF2FFFEE33FEED33FDEC33FCBF
:100C1500C933C910D7059BE99A4007EC9BFCE99AB3
:100C2500F90FD8E0E4C9FAE4CCFB2275F010EF2FF8
:100C3500FFEE33FEED33FDCC33CCC833C810D707F8
:100C45009BEC9AE899400AED9BFDEC9AFCE899F833
:0E0C55000FD5F0DAE4CDFBE4CCFAE4C8F922C6
:00000001FF
