:0F111D0054656D703A202020202E2020204300A2
:1010F00012112C7BFF7A11791DE4FDFF120FF67B94
:08110000DFE4FD7F0C02115E2B
:100C63007B20E4FD7F0512115EAE1EAF1F7C277D46
:100C730010120B517C007D0A120B51ED2430FBE462
:100C8300FD7F0612115EAE1EAF1F7C037DE8120BC3
:100C9300517C007D0A120B51ED2430FBE4FD7F07EC
:100CA30012115EAE1EAF1F7C007D64120B517C00DF
:100CB3007D0A120B51ED2430FBE4FD7F0812115E17
:100CC300AE1EAF1F7C007D0A120B517C007D0A1201
:100CD3000B51ED2430FBE4FD7F0A12115EAE1EAF13
:100CE3001F7C007D0A120B51ED2430FBE4FD7F0BCA
:030CF30002115E8D
:100D7B007F647E00120FCF120EFD1210F0209264D2
:100D8B007F147E00120FCF20925AE4F518F517F559
:100D9B0016F515F513F514120F78EE3395E0FDFCEF
:100DAB00E5182FF518E5173EF517E5163DF516E591
:100DBB00153CF5157F017E00120FCF0514E514705D
:100DCB00020513C3E5136480948140CBE4FB7A01E5
:100DDB00F9F8AF18AE17AD16AC15120EB98E1E8FF3
:100DEB001F120C633092FD7F147E00120FCF808D8B
:100FCF00E4FDFCC3ED9FEC9E501C5389F043890157
:100FDF00758CFC758A66D28C308DFDC28CC28D0DDE
:060FEF00BD00010C80DDD5
:010FF50022D9
:09115400007F027EC7DEFEDFFC15
:01115D00226F
:03116800DFFE2285
:04101C00E4FD7F3838
:101020008F1DED6003120FA7C2A7C2A6C2A51211A1
:1010300054851D80121154D2A5121154C2A502115B
:01104000545B
:101063008F1D120FA7D2A7C2A6C2A5121154851DA8
:0E10730080121154D2A5121154C2A5021154BC
:100EFD0012101C7F057E00120FCF12101C7F057E75
:100F0D0000120FCF12101C7F057E00120FCF7D0136
:100F1D007F381210207D017F081210207D017F0186
:100F2D001210207D017F061210207D017F0C021012
:010F3D002093
:0E112C007D017F011210207F057E00020FCF93
:100FA700E4FFFE7580FFC2A7D2A600D2A50000E528
:100FB7008030E711C3EF94E8EE94035008000FBFA9
:070FC70000010E80EAC2A543
:010FCE002200
:10110800EF540FFF530501ED600343074043078089
:051118007D0102102022
:0A115E008B19121108AF190210637B
:060FF6008B198A1A891B09
:100FFC00121108E4F51CAB19AA1AA91B851C8275E1
:0F100C008300120ABDFF6007121063051C80E706
:01101B0022B2
:040DFB008A238B2498
:100DFF00752700752801121108752601E526C39580
:100E0F00255013AE27AF287C007D0A120AEA8E27E1
:100E1F008F28052680E6E4F526E526C39525502F75
:100E2F00AC27AD28AE23AF24120AFC7C007D0A123A
:100E3F000AFC8D29E5292430FF121063AE27AF2855
:0B0E4F007C007D0A120AFC8E278F2811
:040E5A00052680CA1F
:010E5E002271
:040CF6008A0A8B0BD0
:100CFA00750E00750F01121108C3E50A648094800D
:100D0A0050127F2D121063C3E4950BF511E4950A76
:100D1A00F5108006850A10850B11750D01E50DC3C6
:100D2A00950C5013AE0EAF0F7C007D0A120AEA8EA4
:100D3A000E8F0F050D80E6E4F50DE50DC3950C50F9
:010D4A002F79
:100D4B00AC0EAD0FAE10AF11120AFC7C007D0A1277
:100D5B000AFC8D12E5122430FF121063AE0EAF0F9A
:0B0D6B007C007D0A120AFC8E0E8F0F28
:040D7600050D80CA1D
:010D7A002256
:0E113A00EF1FAC0670011E4C60030080F32214
:10108100D2917F04121168D2907F04121168C2912B
:0C1091007F04121168C2907F04021168F5
:10109D00C2907F04121168C2917F04121168D29020
:0C10AD007F04121168D2917F04021168C8
:1010B900200704C2918002D2917F01121168D29057
:0C10C9007F04121168C2907F04021168BD
:020E5F008F19E9
:100E610085191B751C00751D0AD3E51D9400E51C31
:100E7100648094804041E4F51AE51B5480FF33956A
:100E8100E04F6003D38001C392071210B9E51B251F
:100E9100E0F51B051AC3E51A6480948840DB121043
:100EA100D530001312109D121081E51D151D700221
:070EB100151C85191B80B21E
:010EB8002217
:1010D500D291D200D2907F04121168A29192007F22
:0B10E50002121168C2907F0402116823
:10104100E4F51AF519E51A25E0F51A1210D5300064
:1010510002051A0519E519C3940840E91210B9AF40
:011061001A74
:01106200226B
:100F3E00121081E4FF120E5F7F07120E5F121081F6
:100F4E007F01120E5FC2071210418F2AC2071210C4
:100F5E00418F2CD2071210418F2B12109DE52CFEC3
:0A0F6E007C00E4252AFFEC3EFE2281
:100F7800120F3EAD07AC06EC120A037B0A7AD7794A
:100F8800A3783C1208F87B337A93798878C31208DF
:0F0F9800077BFF7AFF79D078421208F8020A3CF3
:10080000020AA8E86480F8E933E83360110460F074
:10081000ED33EC337009E8FCE9FDEAFEEBFF22045E
:1008200060DED3EB9FEA9EE99DE8C2E78CF0C2F759
:1008300095F0400CE8CCF8E9CDF9EACEFAEBCFFB25
:10084000120A7385D0F05804700320D5B3E8047001
:10085000075002B2D5020AB292D5EC0460F7E4CC9C
:10086000C0E0C398F8603B94186008400DD0E0FBEE
:10087000020A8AE4FBFAC9FC8028E830E406E4C9ED
:10088000FBE4CAFCE830E305E4C9CACBFCE8540742
:100890006010F8C3E913F9EA13FAEB13FBEC13FC4D
:1008A000D8F130F52FC3E49CFCEF9BFFEE9AFEEDF0
:1008B00099FDD0E0FBEF4E4D4C701222DB03020A93
:1008C000AFEC2CFCEF33FFEE33FEED33FDED30E704
:1008D000EB020A8AEF2BFFEE3AFEED39FDD0E0FB8A
:1008E00050130BBB0003020AB2ED13FDEE13FEEF33
:0808F00013FFEC13FC020A8A5D
:1008F800EC4D6011E8497017ED33EC3304600DE4FA
:10090800FCFFFEFD22E933E8330470F8020AA8125E
:100918000A7358046009E4CC24815006285009025F
:100928000AB2284003020AAFC0E0EB4A7044B9801B
:1009380006D0E0FB020A9EEF4E701CBD8008EBFF5C
:10094800EAFEE9FD80EBE98DF0A4FEE5F00209E19D
:10095800E9CDF9EAFEEBFFEF89F0A4FCE5F0CE89DA
:10096800F0A42EFFE435F0CD89F0A42DFEE435F097
:100978008067EF4E7005BD80D780C3EF8BF0A4ACC5
:10098800F0EE8BF0A42CFCE435F0F8EF8AF0A42C00
:10099800E5F038FCE433CB8DF0A42CFCE5F03BF813
:1009A800EE8AF0A42CFCE5F038F8E433CF89F0A403
:1009B8002CFCE5F038CF3400CE89F0A42FFFE5F009
:1009C8003EFEE433C98DF0A42EFEE5F039CD8AF061
:1009D800A42FFFE5F03EFEE43DFD33D0E0FB5007D9
:1009E8000BBB000F020AB2EC2CFCEF33FFEE33FE18
:0609F800ED33FD020A8A46
:1009FE0075F020800E75F010800575F0087D007E74
:100A0E00007F003392D530D503120B87EC334010A4
:100A1E00EF33FFEE33FEED33FDEC33FCD5F0ED227C
:0E0A2E00E5F0247EA2D513CC92E7CDCEFF22B8
:100A3C00EDD2E7CD33EC3392D524814006E4FFFEB2
:100A4C00FDFC22FCE4CFCECDCC24E0501174FF8011
:100A5C00EDC3CC13CCCD13CDCE13CECF13CF0470AE
:070A6C00F030D5DE020B871C
:100A7300E9D2E7C933E833F892D5EDD2E7CD33ECC9
:070A830033FC5002B2D52242
:100A8A00EC30E7100FBF000C0EBE00080DBD0004CD
:100A9A000BEB6014A2D5EB13FCED92E7FD2274FF79
:100AAA00FCFDFEFF22E480F8A2D574FF13FC7D80D2
:030ABA00E480EFE6
:03000000021148A2
:0C114800787FE4F6D8FD75812C020D7B49
:100ABD00BB010CE58229F582E5833AF583E02250EE
:100ACD0006E92582F8E622BBFE06E92582F8E22238
:0D0ADD00E58229F582E5833AF583E4932252
:100AEA00EF8DF0A4A8F0CF8CF0A428CE8DF0A42E20
:020AFA00FE22DA
:100AFC00BC000BBE0029EF8DF084FFADF022E4CCDE
:100B0C00F875F008EF2FFFEE33FEEC33FCEE9DECA6
:100B1C00984005FCEE9DFE0FD5F0E9E4CEFD22EDEC
:100B2C00F8F5F0EE8420D21CFEADF075F008EF2F36
:100B3C00FFED33FD4007985006D5F0F222C398FD27
:050B4C000FD5F0EA22C4
:100B5100C2D5EC30E709B2D5E4C39DFDE49CFCEEBF
:100B610030E715B2D5E4C39FFFE49EFE120AFCC331
:100B7100E49DFDE49CFC8003120AFC30D507C3E42C
:060B81009FFFE49EFE222E
:100EB900C2D5E830E70FB2D5E4C39BFBE49AFAE464
:100EC90099F9E498F8EC30E717B2D5120EEF120B46
:100ED900D1E4C39BFBE49AFAE499F9E498F8800316
:100EE900120BD130D50DE4C39FFFE49EFEE49DFDB6
:040EF900E49CFC2257
:0E0B8700C3E49FFFE49EFEE49DFDE49CFC227F
:100B950075F008758200EF2FFFEE33FECD33CDCC17
:100BA50033CCC58233C5829BED9AEC99E58298409A
:100BB5000CF582EE9BFEED9AFDEC99FC0FD5F0D677
:100BC500E4CEFBE4CDFAE4CCF9A88222B800C1B9A1
:100BD5000059BA002DEC8BF084CFCECDFCE5F0CBDF
:100BE500F97818EF2FFFEE33FEED33FDEC33FCEB18
:100BF50033FB10D703994004EB99FB0FD8E5E4F9D3
:100C0500FA227818EF2FFFEE33FEED33FDEC33FCBF
:100C1500C933C910D7059BE99A4007EC9BFCE99AB3
:100C2500F90FD8E0E4C9FAE4CCFB2275F010EF2FF8
:100C3500FFEE33FEED33FDCC33CCC833C810D707F8
:100C45009BEC9AE899400AED9BFDEC9AFCE899F833
:0E0C55000FD5F0DAE4CDFBE4CCFAE4C8F922C6
:00000001FF
